{
  "_format": "hh-sol-artifact-1",
  "contractName": "GreenStamp",
  "sourceName": "src/GreenStamp.sol",
  "abi": [
    {
      "anonymous": false,
      "inputs": [
        {
          "indexed": true,
          "internalType": "string",
          "name": "reportId",
          "type": "string"
        },
        {
          "indexed": true,
          "internalType": "address",
          "name": "uploader",
          "type": "address"
        },
        {
          "indexed": false,
          "internalType": "uint256",
          "name": "timestamp",
          "type": "uint256"
        }
      ],
      "name": "ReportUploaded",
      "type": "event"
    },
    {
      "anonymous": false,
      "inputs": [
        {
          "indexed": true,
          "internalType": "string",
          "name": "reportId",
          "type": "string"
        },
        {
          "indexed": false,
          "internalType": "bool",
          "name": "verified",
          "type": "bool"
        }
      ],
      "name": "ReportVerified",
      "type": "event"
    },
    {
      "inputs": [
        {
          "internalType": "string",
          "name": "reportId",
          "type": "string"
        }
      ],
      "name": "getReport",
      "outputs": [
        {
          "internalType": "string",
          "name": "ipfsHash",
          "type": "string"
        },
        {
          "internalType": "string",
          "name": "reportHash",
          "type": "string"
        },
        {
          "internalType": "uint256",
          "name": "timestamp",
          "type": "uint256"
        },
        {
          "internalType": "uint256",
          "name": "esgScore",
          "type": "uint256"
        },
        {
          "internalType": "address",
          "name": "uploader",
          "type": "address"
        },
        {
          "internalType": "bool",
          "name": "verified",
          "type": "bool"
        }
      ],
      "stateMutability": "view",
      "type": "function"
    },
    {
      "inputs": [
        {
          "internalType": "address",
          "name": "user",
          "type": "address"
        }
      ],
      "name": "getUserReports",
      "outputs": [
        {
          "internalType": "string[]",
          "name": "",
          "type": "string[]"
        }
      ],
      "stateMutability": "view",
      "type": "function"
    },
    {
      "inputs": [
        {
          "internalType": "string",
          "name": "",
          "type": "string"
        }
      ],
      "name": "reports",
      "outputs": [
        {
          "internalType": "string",
          "name": "ipfsHash",
          "type": "string"
        },
        {
          "internalType": "string",
          "name": "reportHash",
          "type": "string"
        },
        {
          "internalType": "uint256",
          "name": "timestamp",
          "type": "uint256"
        },
        {
          "internalType": "uint256",
          "name": "esgScore",
          "type": "uint256"
        },
        {
          "internalType": "address",
          "name": "uploader",
          "type": "address"
        },
        {
          "internalType": "bool",
          "name": "verified",
          "type": "bool"
        }
      ],
      "stateMutability": "view",
      "type": "function"
    },
    {
      "inputs": [
        {
          "internalType": "string",
          "name": "reportId",
          "type": "string"
        },
        {
          "internalType": "string",
          "name": "ipfsHash",
          "type": "string"
        },
        {
          "internalType": "string",
          "name": "reportHash",
          "type": "string"
        },
        {
          "internalType": "uint256",
          "name": "esgScore",
          "type": "uint256"
        }
      ],
      "name": "uploadReport",
      "outputs": [],
      "stateMutability": "nonpayable",
      "type": "function"
    },
    {
      "inputs": [
        {
          "internalType": "address",
          "name": "",
          "type": "address"
        },
        {
          "internalType": "uint256",
          "name": "",
          "type": "uint256"
        }
      ],
      "name": "userReports",
      "outputs": [
        {
          "internalType": "string",
          "name": "",
          "type": "string"
        }
      ],
      "stateMutability": "view",
      "type": "function"
    },
    {
      "inputs": [
        {
          "internalType": "string",
          "name": "reportId",
          "type": "string"
        },
        {
          "internalType": "bool",
          "name": "verified",
          "type": "bool"
        }
      ],
      "name": "verifyReport",
      "outputs": [],
      "stateMutability": "nonpayable",
      "type": "function"
    }
  ],
  "bytecode": "0x608060405234801561001057600080fd5b50611540806100206000396000f3fe608060405234801561001057600080fd5b50600436106100625760003560e01c806312e63d711461006757806322aec42c1461009c5780635a345e46146100b857806364cceaef146100e857806370a05afc1461011d578063d89bc5a81461014d575b600080fd5b610081600480360381019061007c9190610bc7565b610169565b60405161009396959493929190610d04565b60405180910390f35b6100b660048036038101906100b19190610d9f565b61037b565b005b6100d260048036038101906100cd9190610e86565b6105d4565b6040516100df9190610ec6565b60405180910390f35b61010260048036038101906100fd9190610bc7565b61068d565b60405161011496959493929190610d04565b60405180910390f35b61013760048036038101906101329190610ee8565b61081c565b6040516101449190611021565b60405180910390f35b6101676004803603810190610162919061106f565b610934565b005b606080600080600080600080886040516101839190611107565b90815260200160405180910390206040518060c00160405290816000820180546101ac9061114d565b80601f01602080910402602001604051908101604052809291908181526020018280546101d89061114d565b80156102255780601f106101fa57610100808354040283529160200191610225565b820191906000526020600020905b81548152906001019060200180831161020857829003601f168201915b5050505050815260200160018201805461023e9061114d565b80601f016020809104026020016040519081016040528092919081815260200182805461026a9061114d565b80156102b75780601f1061028c576101008083540402835291602001916102b7565b820191906000526020600020905b81548152906001019060200180831161029a57829003601f168201915b5050505050815260200160028201548152602001600382015481526020016004820160009054906101000a900473ffffffffffffffffffffffffffffffffffffffff1673ffffffffffffffffffffffffffffffffffffffff1673ffffffffffffffffffffffffffffffffffffffff1681526020016004820160149054906101000a900460ff1615151515815250509050806000015181602001518260400151836060015184608001518560a001519650965096509650965096505091939550919395565b6000808560405161038c9190611107565b908152602001604051809103902060010180546103a89061114d565b9050146103ea576040517f08c379a00000000000000000000000000000000000000000000000000000000081526004016103e1906111ca565b60405180910390fd5b6040518060c001604052808481526020018381526020014281526020018281526020013373ffffffffffffffffffffffffffffffffffffffff168152602001600015158152506000856040516104409190611107565b908152602001604051809103902060008201518160000190816104639190611396565b5060208201518160010190816104799190611396565b50604082015181600201556060820151816003015560808201518160040160006101000a81548173ffffffffffffffffffffffffffffffffffffffff021916908373ffffffffffffffffffffffffffffffffffffffff16021790555060a08201518160040160146101000a81548160ff021916908315150217905550905050600160003373ffffffffffffffffffffffffffffffffffffffff1673ffffffffffffffffffffffffffffffffffffffff168152602001908152602001600020849080600181540180825580915050600190039060005260206000200160009091909190915090816105699190611396565b503373ffffffffffffffffffffffffffffffffffffffff168460405161058f9190611107565b60405180910390207f22ae6a48c6edba34d241d1e6afb78d990c0a3fb27db01ae6ab616e540606b797426040516105c69190611468565b60405180910390a350505050565b600160205281600052604060002081815481106105f057600080fd5b9060005260206000200160009150915050805461060c9061114d565b80601f01602080910402602001604051908101604052809291908181526020018280546106389061114d565b80156106855780601f1061065a57610100808354040283529160200191610685565b820191906000526020600020905b81548152906001019060200180831161066857829003601f168201915b505050505081565b6000818051602081018201805184825260208301602085012081835280955050505050506000915090508060000180546106c69061114d565b80601f01602080910402602001604051908101604052809291908181526020018280546106f29061114d565b801561073f5780601f106107145761010080835404028352916020019161073f565b820191906000526020600020905b81548152906001019060200180831161072257829003601f168201915b5050505050908060010180546107549061114d565b80601f01602080910402602001604051908101604052809291908181526020018280546107809061114d565b80156107cd5780601f106107a2576101008083540402835291602001916107cd565b820191906000526020600020905b8154815290600101906020018083116107b057829003601f168201915b5050505050908060020154908060030154908060040160009054906101000a900473ffffffffffffffffffffffffffffffffffffffff16908060040160149054906101000a900460ff16905086565b6060600160008373ffffffffffffffffffffffffffffffffffffffff1673ffffffffffffffffffffffffffffffffffffffff168152602001908152602001600020805480602002602001604051908101604052809291908181526020016000905b8282101561092957838290600052602060002001805461089c9061114d565b80601f01602080910402602001604051908101604052809291908181526020018280546108c89061114d565b80156109155780601f106108ea57610100808354040283529160200191610915565b820191906000526020600020905b8154815290600101906020018083116108f857829003601f168201915b50505050508152602001906001019061087d565b505050509050919050565b3373ffffffffffffffffffffffffffffffffffffffff1660008360405161095b9190611107565b908152602001604051809103902060040160009054906101000a900473ffffffffffffffffffffffffffffffffffffffff1673ffffffffffffffffffffffffffffffffffffffff16146109e3576040517f08c379a00000000000000000000000000000000000000000000000000000000081526004016109da906114cf565b60405180910390fd5b806000836040516109f49190611107565b908152602001604051809103902060040160146101000a81548160ff02191690831515021790555081604051610a2a9190611107565b60405180910390207fc0906a998aa527055a06fab392d71db86e7c0953f61017f0020657f280ba951282604051610a6191906114ef565b60405180910390a25050565b6000604051905090565b600080fd5b600080fd5b600080fd5b600080fd5b6000601f19601f8301169050919050565b7f4e487b7100000000000000000000000000000000000000000000000000000000600052604160045260246000fd5b610ad482610a8b565b810181811067ffffffffffffffff82111715610af357610af2610a9c565b5b80604052505050565b6000610b06610a6d565b9050610b128282610acb565b919050565b600067ffffffffffffffff821115610b3257610b31610a9c565b5b610b3b82610a8b565b9050602081019050919050565b82818337600083830152505050565b6000610b6a610b6584610b17565b610afc565b905082815260208101848484011115610b8657610b85610a86565b5b610b91848285610b48565b509392505050565b600082601f830112610bae57610bad610a81565b5b8135610bbe848260208601610b57565b91505092915050565b600060208284031215610bdd57610bdc610a77565b5b600082013567ffffffffffffffff811115610bfb57610bfa610a7c565b5b610c0784828501610b99565b91505092915050565b600081519050919050565b600082825260208201905092915050565b60005b83811015610c4a578082015181840152602081019050610c2f565b60008484015250505050565b6000610c6182610c10565b610c6b8185610c1b565b9350610c7b818560208601610c2c565b610c8481610a8b565b840191505092915050565b6000819050919050565b610ca281610c8f565b82525050565b600073ffffffffffffffffffffffffffffffffffffffff82169050919050565b6000610cd382610ca8565b9050919050565b610ce381610cc8565b82525050565b60008115159050919050565b610cfe81610ce9565b82525050565b600060c0820190508181036000830152610d1e8189610c56565b90508181036020830152610d328188610c56565b9050610d416040830187610c99565b610d4e6060830186610c99565b610d5b6080830185610cda565b610d6860a0830184610cf5565b979650505050505050565b610d7c81610c8f565b8114610d8757600080fd5b50565b600081359050610d9981610d73565b92915050565b60008060008060808587031215610db957610db8610a77565b5b600085013567ffffffffffffffff811115610dd757610dd6610a7c565b5b610de387828801610b99565b945050602085013567ffffffffffffffff811115610e0457610e03610a7c565b5b610e1087828801610b99565b935050604085013567ffffffffffffffff811115610e3157610e30610a7c565b5b610e3d87828801610b99565b9250506060610e4e87828801610d8a565b91505092959194509250565b610e6381610cc8565b8114610e6e57600080fd5b50565b600081359050610e8081610e5a565b92915050565b60008060408385031215610e9d57610e9c610a77565b5b6000610eab85828601610e71565b9250506020610ebc85828601610d8a565b9150509250929050565b60006020820190508181036000830152610ee08184610c56565b905092915050565b600060208284031215610efe57610efd610a77565b5b6000610f0c84828501610e71565b91505092915050565b600081519050919050565b600082825260208201905092915050565b6000819050602082019050919050565b600082825260208201905092915050565b6000610f5d82610c10565b610f678185610f41565b9350610f77818560208601610c2c565b610f8081610a8b565b840191505092915050565b6000610f978383610f52565b905092915050565b6000602082019050919050565b6000610fb782610f15565b610fc18185610f20565b935083602082028501610fd385610f31565b8060005b8581101561100f5784840389528151610ff08582610f8b565b9450610ffb83610f9f565b925060208a01995050600181019050610fd7565b50829750879550505050505092915050565b6000602082019050818103600083015261103b8184610fac565b905092915050565b61104c81610ce9565b811461105757600080fd5b50565b60008135905061106981611043565b92915050565b6000806040838503121561108657611085610a77565b5b600083013567ffffffffffffffff8111156110a4576110a3610a7c565b5b6110b085828601610b99565b92505060206110c18582860161105a565b9150509250929050565b600081905092915050565b60006110e182610c10565b6110eb81856110cb565b93506110fb818560208601610c2c565b80840191505092915050565b600061111382846110d6565b915081905092915050565b7f4e487b7100000000000000000000000000000000000000000000000000000000600052602260045260246000fd5b6000600282049050600182168061116557607f821691505b6020821081036111785761117761111e565b5b50919050565b7f5265706f727420616c7265616479206578697374730000000000000000000000600082015250565b60006111b4601583610c1b565b91506111bf8261117e565b602082019050919050565b600060208201905081810360008301526111e3816111a7565b9050919050565b60008190508160005260206000209050919050565b60006020601f8301049050919050565b600082821b905092915050565b60006008830261124c7fffffffffffffffffffffffffffffffffffffffffffffffffffffffffffffffff8261120f565b611256868361120f565b95508019841693508086168417925050509392505050565b6000819050919050565b600061129361128e61128984610c8f565b61126e565b610c8f565b9050919050565b6000819050919050565b6112ad83611278565b6112c16112b98261129a565b84845461121c565b825550505050565b600090565b6112d66112c9565b6112e18184846112a4565b505050565b5b81811015611305576112fa6000826112ce565b6001810190506112e7565b5050565b601f82111561134a5761131b816111ea565b611324846111ff565b81016020851015611333578190505b61134761133f856111ff565b8301826112e6565b50505b505050565b600082821c905092915050565b600061136d6000198460080261134f565b1980831691505092915050565b6000611386838361135c565b9150826002028217905092915050565b61139f82610c10565b67ffffffffffffffff8111156113b8576113b7610a9c565b5b6113c2825461114d565b6113cd828285611309565b600060209050601f83116001811461140057600084156113ee578287015190505b6113f8858261137a565b865550611460565b601f19841661140e866111ea565b60005b8281101561143657848901518255600182019150602085019450602081019050611411565b86831015611453578489015161144f601f89168261135c565b8355505b6001600288020188555050505b505050505050565b600060208201905061147d6000830184610c99565b92915050565b7f4e6f7420617574686f72697a6564000000000000000000000000000000000000600082015250565b60006114b9600e83610c1b565b91506114c482611483565b602082019050919050565b600060208201905081810360008301526114e8816114ac565b9050919050565b60006020820190506115046000830184610cf5565b9291505056fea264697066735822122088652a7c70aba737ed7b2811ee2ea04105230e6f529738d0ad53f19bdb63ee3864736f6c63430008130033",
  "linkReferences": {},
  "deployedLinkReferences": {}
}